:100000000C9456020C9487020C9487020C9487027D
:100010000C9487020C9487020C9487020C9487023C
:100020000C9487020C9487020C9487020C9487022C
:100030000C9487020C9487020C9487020C9487021C
:100040000C9487020C9487020C9487020C9487020C
:100050000C9487020C9487020C9487020C94220E55
:100060000C9487020C94F60E0C94CC0E0C94870220
:100070000C9487020C9487020C9487020C948702DC
:100080000C9487020C9487020C9487020C948702CC
:100090000C94960E0C946C0E0C9487020C948702B0
:1000A0000C9487020C9487020C9487020C948702AC
:1000B0000C9487020C9487020C9487020C9487029C
:1000C0000C9487020C9487020C9487020C9487028C
:1000D0000C9487020C9487020C9487020C9487027C
:1000E0000C9487020C94F5050C94FC030C945614A4
:1000F0000C94DA130C9425070C94D4020C94651418
:100100000C946F090C94200E0C9478060C94E01358
:100110000C940E080C940F030C947A060C948E0722
:100120000C94DA030C94F1060C9401030C94E6137E
:100130000C94260A0C9472060C94FD020C94050390
:100140000C94D0020C945C140C94F4130C94EB07F4
:100150000C94DC020C94E3070C94D5130C94000867
:100160000C94240A0C94F2070C940B030C94E313E4
:100170000C94CC070C9474060C94E9020C949E0326
:100180000C941D0A0C94160A0C9476060C94B90271
:100190000C94F1130C94EE030C9462140C94F3027F
:1001A0000C94EF020C94F7020C943C140C94A604EB
:1001B0000C94CB030C9447060C943E040C945914F5
:1001C0000C9478070C94090A0C9415080C94BE0240
:1001D0000C9429060C9407080C94D8020C946C0615
:1001E0000C94E5020C94DD130C9453140C947006DB
:1001F0000C9446070C94F9070C945F140C941608A1
:100200000C94D0060C946E060C94DF020C94040A35
:100210000C942C0F0C94280A4446506C617965723A
:10022000204D696E69206F6E6C696E652E00322EEE
:10023000506C6561736520696E73657274207468B3
:100240006520534420636172642100312E506C6537
:10025000617365207265636865636B2074686520EF
:10026000636F6E6E656374696F6E2100556E6162B7
:100270006C6520746F20626567696E3A00496E692B
:100280007469616C697A696E67204446506C617963
:100290006572202E2E2E20284D61792074616B65A9
:1002A00020337E35207365636F6E64732900444686
:1002B000526F626F74204446506C61796572204DB4
:1002C000696E692044656D6F00496E2041647665F2
:1002D00072746973650043616E6E6F742046696E57
:1002E000642046696C650046696C6520496E6465EA
:1002F00078204F7574206F6620426F756E640043DE
:100300006865636B2053756D204E6F74204D61746A
:100310006368004765742057726F6E67205374617D
:10032000636B00536C656570696E6700436172644E
:10033000206E6F7420666F756E64004446506C6169
:100340007965724572726F723A0020506C61792043
:1003500046696E697368656421004E756D626572E9
:100360003A0043617264204F6E6C696E65210043F0
:100370006172642052656D6F76656421004361721D
:100380006420496E736572746564210053746163FF
:100390006B2057726F6E67210054696D65204F7531
:1003A00074210000002100240027002A002D0030C5
:1003B00000330001010000040107010A01000022CE
:1003C00000250028002B002E00310034000201001F
:1003D00000050108010B01050505050705080808CA
:1003E00008020202020A0A080804040404010101C6
:1003F00001010101010303030303030303040707CE
:10040000070C0C0C0C0C0C0C0C020202020606066B
:1004100006060606060B0B0B0B0B0B0B0B01021053
:10042000202008081020401020408002010201080E
:1004300004020101020408102040808040201008BE
:100440000402018004020180402010080402010817
:100450000402010102040810204080010204081077
:1004600020408000000A0B02090C0D0E080703044F
:10047000010000000000000000000000000000007B
:10048000000000000000000000000000000000125A
:10049000111000000000000000000000000000003B
:1004A000000000000000000000002C0F11241FBEFF
:1004B000CFEFD1E2DEBFCDBF00E00CBF12E0A0E085
:1004C000B2E0E2EEF0E300E00BBF02C007900D9255
:1004D000AE39B107D9F724E0AEE9B2E001C01D9210
:1004E000A03DB207E1F712E0C6E5D2E000E006C0A9
:1004F00021970109802FFE010E94A914C535D1075B
:1005000080E00807A9F70E942F110C946F180C9433
:100510000000282F30E0F901ED59FB4F9491F901CB
:10052000E35EFB4F449129523C4FF9012491222371
:1005300009F435C0992311F191509231F8F4E92F63
:10054000F0E08827E955FD4F8F4F0C94A914D8028D
:10055000DC02B902D002D402BE02DF02E502E902E7
:10056000EF02F302F702FD020103BE0205030B03D3
:100570000F03809180008F7780938000E22FF0E05E
:10058000EE0FFF1FE354FC4FA591B4918FB7F89481
:10059000EC91611148C040954E234C938FBF089554
:1005A000809180008F7DE8CF80918000877FE4CFAD
:1005B00084B58F7784BDE2CF84B58F7DFBCF8091EA
:1005C000B0008F778093B000D9CF8091B0008F7D3D
:1005D000F9CF809190008F7780939000CFCF80915A
:1005E00090008F7DF9CF80919000877FF5CF80912B
:1005F000A0008F778093A000C1CF8091A0008F7D55
:10060000F9CF8091A000877FF5CF809120018F776F
:1006100080932001B3CF809120018F7DF9CF80910D
:100620002001877FF5CF4E2BB8CFCF93DF9390E09B
:10063000FC01E35EFB4F249189529C4FFC018491A5
:100640008823D1F090E0880F991FFC01ED55FC4FF5
:10065000A591B491FC01E354FC4FC591D491623053
:1006600071F49FB7F8943C91822F809583238C93EB
:10067000E8812E2B28839FBFDF91CF9108958FB7FC
:10068000F894EC912E2B2C938FBFF6CF3FB7F894B4
:100690008091A3029091A402A091A502B091A6021C
:1006A00026B5A89B05C02F3F19F00196A11DB11DCD
:1006B0003FBFBA2FA92F982F8827BC01CD01620F09
:1006C000711D811D911D42E0660F771F881F991FC4
:1006D0004A95D1F708958F929F92AF92BF92CF9291
:1006E000DF92EF92FF926B017C010E9446034B0167
:1006F0005C01C114D104E104F104B9F00E94460385
:10070000681979098A099B09683E7340810591053A
:1007100080F321E0C21AD108E108F10888EE880EC2
:1007200083E0981EA11CB11CE4CFFF90EF90DF90F6
:10073000CF90BF90AF909F908F900895AF92BF924F
:10074000CF92DF92EF92FF920F931F93CF93DF939D
:100750006C017B018B01040F151FEB015E01AE18CC
:10076000BF08C017D10759F06991D601ED91FC91EE
:100770000190F081E02DC6011995892B79F7C5010B
:10078000DF91CF911F910F91FF90EF90DF90CF906D
:10079000BF90AF900895FC01538D448D252F30E01C
:1007A000842F90E0821B930B541710F0CF9608957E
:1007B00001970895FC01918D828D981761F0A28DAB
:1007C000AE0FBF2FB11D5D968C91928D9F5F9F7371
:1007D000928F90E008958FEF9FEF0895FC01918D27
:1007E000828D981731F0828DE80FF11D858D90E094
:1007F00008958FEF9FEF0895FC01918D228D892F31
:1008000090E0805C9F4F821B91098F739927089518
:1008100087EA92E00E94FC0321E0892B09F420E0A2
:10082000822F089584E493E00E94FC0321E0892B49
:1008300009F420E0822F0895FC01A48DA80FB92FA0
:10084000B11DA35ABF4F2C91848D90E001968F73F8
:100850009927848FA689B7892C93A089B1898C9117
:10086000837080648C93938D848D981306C0028866
:10087000F389E02D80818F7D80830895EF92FF9230
:100880000F931F93CF93DF93EC0181E0888F9B8DB3
:100890008C8D98131AC0E889F989808185FF15C06D
:1008A0009FB7F894EE89FF896083E889F989808190
:1008B0008370806480839FBF81E090E0DF91CF915F
:1008C0001F910F91FF90EF900895F62E0B8D10E081
:1008D0000F5F1F4F0F731127E02E8C8D8E110CC0F0
:1008E0000FB607FCFACFE889F989808185FFF5CF3B
:1008F000CE010E941C04F1CFEB8DEC0FFD2FF11DFA
:10090000E35AFF4FF0829FB7F8940B8FEA89FB8977
:1009100080818062CFCF0F931F93CF93DF938C01A1
:10092000D0E0C0E0F801EC0FFD1F6491662341F0B8
:1009300084E493E00E943E04892B11F02196F2CFCB
:10094000CE01DF91CF911F910F910895CF93DF9347
:10095000EC01888D8823B9F0AA89BB89E889F989D7
:100960008C9185FD03C0808186FD0DC00FB607FC0C
:10097000F7CF8C9185FFF2CF808185FFEDCFCE013F
:100980000E941C04E9CFDF91CF91089580E090E0B0
:10099000892B29F00E94120481110E94000080E03E
:1009A00090E0892B29F00E94080481110E94000028
:1009B00080E090E0892B49F080E090E0892B29F0DD
:1009C0000E94000081110E94000080E090E0892BCD
:1009D00049F080E090E0892B29F00E94000081110D
:1009E0000C9400000895CF92DF92EF92FF92CF9384
:1009F000DF93EC01688D798D8A8D9B8D9B01AC0115
:100A00000E9482166B017C0168A179A18AA19BA139
:100A10009B01AC010E94B2149B01AC01C701B6015D
:100A20000E9423150E9495156CAB7DAB8EAB9FABDE
:100A3000E881F9810084F185E02DCE01DF91CF912D
:100A4000FF90EF90DF90CF901994CF92DF92EF92CA
:100A5000FF92CF93DF93EC010E9446036B017C0170
:100A600088A599A5AAA5BBA5B701A601481B590B46
:100A70006A0B7B0B8B819C81AD81BE814817590726
:100A80006A077B0748F188899989AA89BB892A81E5
:100A90002223F1F00196A11DB11D888B998BAA8BA1
:100AA000BB8B488959896A897B89E881F9810484EB
:100AB000F585E02DCE011995C8A6D9A6EAA6FBA614
:100AC00081E0DF91CF91FF90EF90DF90CF9008957C
:100AD0000197A109B109E1CF80E0F3CF0F931F93F4
:100AE000CF93DF93A091E303B091E40354964D912B
:100AF0005D916D917C915797483B5B406105710515
:100B000091F048EB5BE060E070E054964D935D93AC
:100B10006D937C935797ED91FC9111970084F1852B
:100B2000E02DCD011995A091E303B091E403549613
:100B30004D915D916D917C91579750960D911D91BE
:100B40002D913C9153974017510762077307B9F4F1
:100B50004834544F6F4F7F4F91F048E454EF6FEF9C
:100B60007FEF54964D935D936D937C935797ED91E2
:100B7000FC9111970084F185E02DCD011995C0916C
:100B8000E303D091E4038B819C81AD81BE81892BED
:100B90008A2B8B2B61F0CE010E942505882339F02A
:100BA000E881F9810084F185E02DCE01199520E0DE
:100BB00030E0A901688D798D8A8D9B8D0E941E156C
:100BC0008111E1CF4C895D896E897F8988899989F6
:100BD000AA89BB89481759076A077B07A1F681E0F4
:100BE000DF91CF911F910F910895CF93DF93FC0177
:100BF0002781222359F1EC0161E080850E941503D1
:100C000061E089850E9415038F81843011F088305E
:100C1000B1F461E08A850E94150361E08B850E9432
:100C200015038FA58F3F91F061E00E9415036EA51B
:100C300081E068278FA5DF91CF910C9489028330E2
:100C400011F0863071F761E08A85E9CFDF91CF91AD
:100C50000895CF93DF93FC0127812223A9F0EC01B3
:100C60000190F081E02D0284F385E02D60E019957C
:100C70008FA58F3F49F061E00E9415036EA58FA5F7
:100C8000DF91CF910C948902DF91CF910895DC011F
:100C9000ED91FC9111972285338547705527662782
:100CA00077274150510961097109473051056105A4
:100CB000710570F4FA018827EF59F94F8F4F0C94A2
:100CC000A9146C066E06700672067406760678061F
:100CD00061E0CD01F901199465E0FBCF64E0F9CF43
:100CE00066E0F7CF62E0F5CF6AE0F3CF68E0F1CFDE
:100CF00069E0EFCFCF93DF93EC01CB01BA0126E09F
:100D000030E040E050E00E948A14623071058105B5
:100D1000910589F16CF46115710581059105D1F09A
:100D20006130710581059105F9F0DF91CF9108954A
:100D3000643071058105910561F124F1653071051B
:100D40008105910591F7E881F9810284F385E02D11
:100D500066E006C0E881F9810284F385E02D64E055
:100D6000CE01DF91CF911994E881F9810284F38556
:100D7000E02D65E0F5CFE881F9810284F385E02D6F
:100D800061E0EECFE881F9810284F385E02D63E034
:100D9000E7CFE881F9810284F385E02D62E0E0CFBE
:100DA000DC01ED91FC910284F385E02D4370552721
:100DB00066277727423051056105710571F0433090
:100DC00051056105710559F0413051056105710505
:100DD00011F065E0199466E0FDCF6AE0FBCF69E0B1
:100DE000F9CFCF93DF93EC01CB01BA0123E030E0E0
:100DF00040E050E00E948A14613071058105910540
:100E000099F06230710581059105A9F0672B682B77
:100E1000692BC1F4E881F9810284F385E02D64E057
:100E2000CE01DF91CF911994E881F9810284F38595
:100E3000E02D61E0F5CFE881F9810284F385E02DB2
:100E400062E0EECFDF91CF910895DC01ED91FC914E
:100E50000284F385E02D43705527662777274230BB
:100E600051056105710571F043305105610571054A
:100E700059F0413051056105710511F062E0199496
:100E800063E0FDCF61E0FBCF60E0F9CFCF93DF936C
:100E9000EC01E881F9810284F385E02D8A8160E02C
:100EA000811162E0CE011995E881F9810284F38510
:100EB000E02D8A8161E0811163E0CE0119958CA556
:100EC0009DA58230910538F0880F991F880F991FD2
:100ED00005970197F1F7E881F9810284F385E02D08
:100EE0008A8160E0811162E0CE01DF91CF91199497
:100EF000CF93DF93EC0120E030E0A901688D798D7C
:100F00008A8D9B8D0E947D1618162CF4E8A9F9A9EC
:100F1000DF91CF911994EAA9FBA9FACFCF92DF9282
:100F2000EF92FF920F931F93CF93DF93DC011796FD
:100F3000CC91C43039F0C83059F1C33019F0C63003
:100F400049F1C2E08C01085F1F4FF12CE12CC62E45
:100F5000D12CD1E0F8016481C6010E2C02C0959518
:100F600087950A94E2F780FD6D270F5F1F4F808100
:100F70000E948902BFEFEB1AFB0AEC1658F3DF91CF
:100F8000CF911F910F91FF90EF90DF90CF90089538
:100F9000C4E0D8CFC3E0D6CFDC011796EC91179709
:100FA000E93008F042C0F0E08827E652F84F8F4F52
:100FB0000C94A914E307EB07F207F90700081508DA
:100FC000070815080E08ED91FC9111970684F78526
:100FD000E02DCD011994ED91FC9111970088F189D4
:100FE000E02DF7CFED91FC9111970288F389E02D68
:100FF000F0CFED91FC9111970488F589E02DE9CFB0
:10100000ED91FC9111970688F789E02DE2CFED91E3
:10101000FC911197008CF18DE02DDBCFED91FC91CF
:101020001197028CF38DE02DD4CF08954F925F92EB
:101030006F927F928F929F92AF92BF92CF92DF92E8
:10104000EF92FF920F931F93CF93DF93EC01CC8825
:10105000DD88EE88FF8888899989AA89BB89C81AA2
:10106000D90AEA0AFB0A688D798D8A8D9B8D9B01CE
:10107000AC010E9482164B015C0168A179A18AA192
:101080009BA19B01AC010E94B2149B01AC01C50164
:10109000B4010E9423150E949515C114D104E104E6
:1010A000F10409F0B6C062307105810591050CF0BC
:1010B000D0C01B821C821D821E82188E198E1A8E31
:1010C0001B8E1CAA1DAA1EAA1FAAC12CD12C7601F8
:1010D000C701B601DF91CF911F910F91FF90EF9063
:1010E000DF90CF90BF90AF909F908F907F906F9048
:1010F0005F904F9008951016110612061306B4F46F
:101100006C157D058E059F051CF42A812111A1C057
:101110009B01AC0188279927DC01821B930BA40B50
:10112000B50B8CAB9DABAEABBFAB93C0011511053E
:101130002105310509F48DC06C157D058E059F05CF
:101140000CF087C08A81882309F483C030952095EC
:10115000109501951F4F2F4F3F4F0CAB1DAB2EAB82
:101160003FAB77C0011511052105310509F471C0A8
:101170008824992454018C189D08AE08BF0868156E
:1011800079058A059B050CF064C08A81811161C0D4
:10119000DDCFCCACDDACEEACFFACA7019601C70156
:1011A000B6010E94B2142B013C01C501B4010E949A
:1011B000CD1520E030E040E850E40E94821620E0A7
:1011C00030E040E85FE30E94B2149B01AC01C30130
:1011D000B2010E9423159B01AC01C701B6010E9418
:1011E000B1143B016C01FE01E05CFF4FE080F18037
:1011F000028113819701A8010E947D16181614F42C
:1012000073018601C701D8018CAF9DAFAEAFBFAFF0
:101210003AC00CA91DA92EA93FA91C141D041E0427
:101220001F040CF468CF10161106120613060CF0FA
:1012300099CF0027112798010C191D092E093F0984
:1012400060177107820793070CF062CF2A81211182
:101250005FCF8CA89DA8AEA8BFA881149104A1045B
:10126000B10409F096CF88AD99ADAAADBBAD8CAFF6
:101270009DAFAEAFBFAF81E01C141D041E041F0460
:101280000CF080E08A833FEF831A930AA30AB30A23
:101290008CAA9DAAAEAABFAA8CAC9DACAEACBFACCA
:1012A000C501B4010E949C156B017C01CB82DC82DC
:1012B000ED82FE82A501940160E074E284E799E486
:1012C0000E942315688F798F8A8F9B8F2A81211125
:1012D000FFCE9058688F798F8A8F9B8FF9CE0895B3
:1012E000CF93DF93EC0188819981DC01ED91FC9132
:1012F0000084F185E02D1995892B09F4AFC060E0D9
:1013000070E0CB010E946B032E8D88819981DC01F6
:10131000ED91FC910284F385E02D211108C019950F
:101320008A878E3701F78E8D8F5F8E8FDCCF199570
:101330009E8DFE01E90FF11D8287923089F0993070
:10134000A1F0913079F48F3F69F01E8E81E088A37F
:101350001BA21AA28CA31DA280E0DF91CF91089559
:10136000863099F79F5F9E8FBECF8F3E71F7FE014B
:101370003B969E012F5E3F4F90E080E04191840FAD
:10138000911D2E173F07D1F7298930E0322F2227F0
:101390004A89240F311D91958195910928173907A4
:1013A000A1F61E8EED85E13411F41DA23DC0E9A326
:1013B0002F85822F90E0982F88272889280F392F92
:1013C000311D3BA32AA3EA53E63108F041C0F0E007
:1013D0008827E251F64F8F4F0C94A914160A1D0A64
:1013E000260A040A260A090A240A280A260A260ABC
:1013F000260A260A260A260A260A260A280A260A6B
:10140000260A260A260A260A85E088A381E08CA3FC
:101410000BC089E020FDF9CF84E021FDF6CF2370D9
:1014200033278AE0232B89F78CA197CF87E020FD13
:10143000ECCF82E021FDE9CFF7CF88E020FDE5CFBA
:1014400083E021FDE2CFF0CF86E0DFCF8BE0DDCF80
:1014500081E088A31BA21AA28CA3A7CF8DA1882309
:1014600019F32FB7F89480919F029091A002A09158
:10147000A102B091A2022FBF4A815B816C817D8164
:10148000841B950BA60BB70B4E815F816885798510
:1014900084179507A607B70738F21E8E18A21BA25D
:1014A0001AA281E057CF0F931F93CF93DF93EC01E4
:1014B0006F8B598F4A8F8C010C5E1F4FFC01759604
:1014C0009C01255E3F4F90E080E04191840F911D8B
:1014D0002E173F07D1F79195819591099B8F8C8F9E
:1014E000888D882361F08DA1882349F060E070E049
:1014F000CB010E946B03CE010E947009F4CF88815A
:101500009981DC01ED91FC910280F381E02D4AE0AC
:1015100050E0B80119952FB7F89480919F029091EF
:10152000A002A091A102B091A2022FBF8A839B8347
:10153000AC83BD83888D91E0811101C090E09DA3B3
:1015400081110AC06AE070E080E090E0DF91CF9105
:101550001F910F910C946B03DF91CF911F910F910D
:101560000895CF93C1E08091EB039091EC03833019
:101570009105E9F13CF481309105E1F00297A1F188
:10158000CF91089584309105A9F10597C9F741E0FD
:1015900050E063E08091E9039091EA030E94530ACE
:1015A00042E050E063E08091E9039091EA03CF913B
:1015B0000C94530A43E050E063E08091E90390917A
:1015C000EA030E94530A1092ED0360ED77E080E099
:1015D00090E00E946B0385E090E09093EC03809391
:1015E000EB03C093ED03BFCF44E050E0E5CF45E00F
:1015F00050E0E2CF46E050E0DFCF0F931F93CF9350
:10160000DF93082F162FD42FC8E06D2F661F662793
:10161000661F802F0E948902DD0F61E0812F0E94EA
:10162000890260E0812F0E948902C15071F7DF9129
:10163000CF911F910F9108952F923F924F925F92F9
:101640006F927F928F929F92AF92BF92CF92DF92D2
:10165000EF92FF920F931F93CF93DF9300D000D0B0
:101660001F92CDB7DEB79F838E834B01FB01808134
:10167000282F30E03C832B832180312C38E0231647
:10168000310409F46BC00E811F81F12CE12C412C37
:10169000512C320143942B813C81E216F3060CF06D
:1016A000D2C08E2D869586958695E82FF0E0FA8338
:1016B000E983D12CC12C8E2D87708F5F8D83C2144E
:1016C000D3040CF0B7C0F0E5EF16F1040CF0AEC097
:1016D00028E0C216D1040CF0A9C0D301C2010C2C21
:1016E00004C0880F991FAA1FBB1F0A94D2F7F801E4
:1016F0004481F401228130E00C2C02C035952795FD
:101700000A94E2F720FF7EC0842BF801848360E016
:10171000EE81FF8181810E948902B12CA12CEE8192
:10172000FF8183818A151B0409F00CF473C0628168
:10173000808129813A812A153B0509F066C04D81D7
:101740000E94FD0AF8014481EE81FF81628180815F
:101750000E94FD0AFFEFAF1ABF0AE1CF10E000E0E0
:101760008B819C81081719070CF06DC0003511059D
:101770000CF045C0F401E00FF11FA280C02EC6940A
:10178000C694C694D12C60E0EE81FF8181810E94D5
:101790008902F12CE12CF02FF770BF2EB394EE816B
:1017A000FF8183818E151F04C9F0C4F0628180819E
:1017B000CE14DF0471F44B2D0E94FD0A4A2DEE81F8
:1017C000FF81628180810E94FD0AFFEFEF1AFF0A0C
:1017D000E6CF40E00E94FD0A40E0F1CF60E0EE81FC
:1017E000FF8181810E94890261E0EE81FF81818118
:1017F0000E948902EE81FF81E00FF11FA4820F5F3A
:101800001F4FAECF8095842380CF40E00E94FD0A19
:1018100040E09ACF60E0EE81FF8181810E948902E1
:1018200061E0EE81FF8181810E948902FFEFCF1A82
:10183000DF0A45CF2FEFE21AF20A0F5F1F4F3FEF8B
:10184000831A930A28CF27960FB6F894DEBF0FBEEF
:10185000CDBFDF91CF911F910F91FF90EF90DF905F
:10186000CF90BF90AF909F908F907F906F905F9040
:101870004F903F902F900895AF92BF92CF92DF92FA
:10188000EF92FF921F93CF93DF93EC017C0111E065
:1018900060E089810E9489026701B12CA12C8B81B3
:1018A0008A151B0499F094F0412F6A8188810E9467
:1018B000FD0AF60144816A8188810E94FD0AFFEFDA
:1018C000AF1ABF0A88E0C80ED11CE9CF60E0898159
:1018D0000E94890261E089810E948902EFEFEE1A7D
:1018E000FE0A1F5F1930A1F6DF91CF911F91FF9083
:1018F000EF90DF90CF90BF90AF900895EF92FF925E
:101900000F931F93CF93DF93EC01E62EF42E60E04C
:1019100089810E94890210E000E08B818017110606
:1019200071F06CF04E2D6A8188810E94FD0A4F2D66
:101930006A8188810E94FD0A0F5F1F4FEECF60E031
:1019400089810E94890261E08981DF91CF911F9195
:101950000F91FF90EF900C948902AF92BF92CF92BB
:10196000DF92EF92FF920F931F93CF93DF93EC01DF
:1019700001E010E060E089810E948902580181E065
:10198000A81AB1087E01D12CC12C8B818C151D04A5
:1019900099F094F0402F6A8188810E94FD0A40E00E
:1019A0006A8188810E94FD0AF7011482FFEFCF1A35
:1019B000DF0AEA0CFB1CE9CF60E089810E94890202
:1019C00061E089810E9489020F5F1F4F0930110574
:1019D00089F6FE013496CC5ADF4F1192CE17DF07FD
:1019E000E1F7DF91CF911F910F91FF90EF90DF9082
:1019F000CF90BF90AF900895CF93DF9364E372E0F0
:101A00008091EE039091EF030E941C0B6CE271E059
:101A100080E090E00E946B03C8E0D0E08091EE038C
:101A20009091EF03FC01438128E0429FA001112423
:101A3000480F591FE417F50761F06481262F30E045
:101A40003595279560FD03C024833196F3CF206838
:101A5000FBCF0E943C0C6091F0037091F10390E089
:101A600080E00E946B032197C9F68091EE0390916C
:101A7000EF03DF91CF910C94AD0CCF93DF936AE22B
:101A800072E08091EE039091EF030E941C0B609135
:101A9000F0037091F10390E080E00E946B03C8E0D6
:101AA000D0E08091EE039091EF03FC01238148E0A8
:101AB000249F90011124280F391FE217F30751F0DA
:101AC0005481452F440F57FD03C044833196F5CF11
:101AD0004160FBCF0E943C0C6091F0037091F103D8
:101AE00090E080E00E946B032197D9F68091EE038D
:101AF0009091EF03DF91CF910C94AD0CFC0101901C
:101B00000020E9F73197AF01481B590BBC0184E471
:101B100093E00C949E03CF93DF930E948B04EC011F
:101B200080E892E00E947E0D8C0F9D1FDF91CF9187
:101B300008954F925F926F927F928F929F92AF9291
:101B4000BF92CF92DF92EF92FF92CF93DF93EC019F
:101B50006A017B0120E030E0A901CB01B6010E94BF
:101B60001E1587FF04C0F7FAF094F7F8F09488A0E8
:101B700099A0AAA0BBA0A7019601C501B4010E942B
:101B80001E15882309F44DC06CA97DA98EA99FA9B3
:101B90000E94CD152B013C01A7019601C501B4019E
:101BA0000E9423159B01AC01C301B2010E94821661
:101BB0000E9495156CAB7DAB8EAB9FABA7019601D8
:101BC00060E070E080E090E40E9423150E94F5162A
:101BD00026E53EE04DE25FE30E94821620E034E21B
:101BE00044E759E40E94821668AF79AF8AAF9BAF91
:101BF000C8A2D9A2EAA2FBA2E881F9810084F185FA
:101C0000E02DCE01DF91CF91FF90EF90DF90CF904C
:101C1000BF90AF909F908F907F906F905F904F900C
:101C20001994DF91CF91FF90EF90DF90CF90BF900C
:101C3000AF909F908F907F906F905F904F9008959E
:101C40000C94E6171F920F920FB60F9211242F9348
:101C50003F938F939F93AF93BF9380919F029091F7
:101C6000A002A091A102B091A20230919E0223E0B5
:101C7000230F2D3758F50196A11DB11D20939E020B
:101C800080939F029093A002A093A102B093A2021E
:101C90008091A3029091A402A091A502B091A60206
:101CA0000196A11DB11D8093A3029093A402A0935D
:101CB000A502B093A602BF91AF919F918F913F91E2
:101CC0002F910F900FBE0F901F90189526E8230FAD
:101CD0000296A11DB11DD2CF1F920F920FB60F9287
:101CE00011240BB60F922F933F934F935F936F93F3
:101CF0007F938F939F93AF93BF93EF93FF9387EA65
:101D000092E00E941C04FF91EF91BF91AF919F91CF
:101D10008F917F916F915F914F913F912F910F9094
:101D20000BBE0F900FBE0F901F9018951F920F9231
:101D30000FB60F9211240BB60F922F938F939F9390
:101D4000EF93FF93E091B702F091B8028081E091A8
:101D5000BD02F091BE0282FD1DC090818091C00243
:101D60008F5F8F732091C102821741F0E091C00212
:101D7000F0E0E955FD4F958F8093C002FF91EF9100
:101D80009F918F912F910F900BBE0F900FBE0F90D0
:101D90001F9018958081F2CF1F920F920FB60F926D
:101DA00011240BB60F922F933F934F935F936F9332
:101DB0007F938F939F93AF93BF93EF93FF9384E4AD
:101DC00093E00E941C04FF91EF91BF91AF919F910E
:101DD0008F917F916F915F914F913F912F910F90D4
:101DE0000BBE0F900FBE0F901F9018951F920F9271
:101DF0000FB60F9211240BB60F922F938F939F93D0
:101E0000EF93FF93E0915403F09155038081E091AB
:101E10005A03F0915B0382FD1DC0908180915D03A8
:101E20008F5F8F7320915E03821741F0E0915D0315
:101E3000F0E0EC5BFC4F958F80935D03FF91EF9199
:101E40009F918F912F910F900BBE0F900FBE0F900F
:101E50001F9018958081F2CFCF92DF92EF92FF9280
:101E60001092AA021092A90248EE53E060E070E0DE
:101E70004093AB025093AC026093AD027093AE02FC
:101E800082E592E09093A8028093A7022DEC30E0C7
:101E90003093B4022093B3022CEC30E03093B602BE
:101EA0002093B50228EC30E03093B8022093B702BB
:101EB00029EC30E03093BA022093B9022AEC30E0EA
:101EC0003093BC022093BB022EEC30E03093BE0274
:101ED0002093BD021092C0021092C1021092C20261
:101EE0001092C30210924703109246034093480396
:101EF0005093490360934A0370934B0390934503B7
:101F00008093440385EC90E09093510380935003B9
:101F100084EC90E0909353038093520380EC90E024
:101F2000909355038093540381EC90E09093570372
:101F30008093560382EC90E090935903809358036A
:101F400086EC90E090935B0380935A0310925D03BC
:101F500010925E0310925F031092600384EF91E091
:101F6000A0E0B0E08093AC049093AD04A093AE04E5
:101F7000B093AF048AE0E4E4F2E0AAEBB4E00190AD
:101F80000D928A95E1F71092C40482E08093C50413
:101F90001092CA041092CB0482E38093520485E32A
:101FA0008093530484E38093540481E08093550428
:101FB000E6E5F4E0119284E0E63AF807D9F784E622
:101FC00092E090930F0480930E0481E080931504B7
:101FD00010921E0410921F041092200410922104EB
:101FE00010922204109223041092240410922504CB
:101FF00010922604109227041092280410922904AB
:1020000010922A0410922B0410922C0410922D048A
:1020100010922E0410922F0410923004109231046A
:10202000C12CD12C80E8E82E8FE3F82EC092320428
:10203000D0923304E0923404F092350410921104EB
:1020400010921204109213041092140481E090E094
:1020500090933B0480933A048FEF80933D04109259
:1020600036041092370410923804109239048AE230
:102070008093160488E28093170484E08093180408
:1020800085E08093190410923C041092420410924F
:102090004304109244041092450410924604109296
:1020A0004704109248041092490410924A04109276
:1020B0004B0410924C0410924D04C0924E04D092E6
:1020C0004F04E0925004F0925104109210041092C8
:1020D0001A0410921B0410921C0410921D048EE02E
:1020E00094E00E94F505B701A6018EE094E00E94FD
:1020F000990DA701960160912A0470912B0480919B
:102100002C0490912D040E941E15882329F1C09261
:102110002A04D0922B04E0922C04F0922D0480E04B
:1021200094E2A4E7B9E480934E0490934F04A09303
:102130005004B09351048091420490914304A091C3
:102140004404B0914504181619061A061B0624F417
:102150008EE094E00E94F3041092FF031092FE03BD
:102160001092F5031092F40310920A0410920B04DB
:1021700010920C0410920D0480E098E09093FB0301
:102180008093FA0386E290E0909301048093000428
:1021900084E290E0909303048093020482E290E052
:1021A000909305048093040480E290E090930704E8
:1021B0008093060461E086E20E94150361E080914D
:1021C00002040E94150361E0809104040E9415033B
:1021D00061E0809106040E94150310920904109298
:1021E000080484E090E09093FD038093FC0382E573
:1021F00094E09093EF038093EE0386E990E0909350
:10220000F1038093F00380ED97E09093F3038093C4
:10221000F20386EA94E09093EA038093E90385E071
:1022200090E09093EC038093EB0381E08093ED03C7
:1022300084EF93E09093E2038093E1038EE094E0D7
:102240009093E4038093E30381E090E09093E803AC
:102250008093E703FF90EF90DF90CF900895CF93A6
:10226000DF93CDB7DEB7A1970FB6F894DEBF0FBEF0
:10227000CDBF789484B5826084BD84B5816084BD0F
:1022800085B5826085BD85B5816085BD80916E0014
:10229000816080936E001092810080918100826045
:1022A0008093810080918100816080938100809182
:1022B00080008160809380008091B1008460809371
:1022C000B1008091B00081608093B0008091910056
:1022D0008260809391008091910081608093910051
:1022E000809190008160809390008091A100826035
:1022F0008093A1008091A10081608093A1008091D2
:10230000A00081608093A000809121018260809371
:102310002101809121018160809321018091200120
:1023200081608093200180917A00846080937A009C
:1023300080917A00826080937A0080917A00816037
:1023400080937A0080917A00806880937A0010925E
:10235000C100E0915403F091550322E02083E09105
:102360005003F09151031082E0915203F091530316
:1023700080E1808310925C03E0915803F09159034F
:1023800096E09083E0915603F0915703808180613D
:102390008083E0915603F0915703808188608083A9
:1023A000E0915603F0915703808180688083E0912B
:1023B0005603F091570380818F7D8083E091B702AF
:1023C000F091B8022083E091B302F091B402108240
:1023D000E091B502F091B6028FEC80831092BF02BB
:1023E000E091BB02F091BC029083E091B902F091C0
:1023F000BA02808180618083E091B902F091BA02D3
:10240000808188608083E091B902F091BA02808176
:1024100080688083E091B902F091BA0280818F7D5B
:10242000808380E892E00E947E0D8EEA92E00E9416
:102430008B0D8DE792E00E948B0D0091E9031091C6
:10244000EA0387EA92E0F8019183808381E0808F3C
:1024500050E040E06CE0C8010E94530A8FB7F89446
:10246000C0909F02D090A002E090A102F090A20242
:102470008FBFC8010E94700981111AC02FB7F8944C
:1024800080919F029091A002A091A102B091A2021E
:102490002FBF8C199D09AE09BF09813D9740A10549
:1024A000B10530F460E070E0CB010E946B03E1CF36
:1024B00068EC70E080E090E00E946B03F80114A2E9
:1024C00080A18430A1F0893091F08CE692E00E94E6
:1024D0008B0D8BE492E00E948B0D8EE292E00E94C5
:1024E0008B0D60E070E0CB010E946B03FACF88E1B6
:1024F00092E00E948B0D44E150E066E08091E90398
:102500009091EA030E94530A41E050E063E0809119
:10251000E9039091EA030E94530A50E040E069E128
:102520008091E9039091EA030E94530A0091EE031F
:102530001091EF0361E0F80180810E94150361E0D2
:10254000F80182810E94150361E0F80181810E94F7
:10255000150361E0F80182810E94890247E06BE087
:10256000C8010E947E0C40E069E0C8010E947E0C18
:1025700041E06CE0C8010E947E0C40E06FE0C801C1
:102580000E947E0CC8010E94AD0C4FE06AE0C801B9
:102590000E947E0C42E06AE08091EE039091EF038E
:1025A0000E947E0C62E086E10E94150362E088E1F1
:1025B0000E94150362E08AE10E94150362E08CE14B
:1025C0000E9415030091E3031091E40320E030E042
:1025D0004AE754E4F801648D758D868D978D0E94CD
:1025E0001E158823E1F080E090E0AAE7B4E4F8014A
:1025F000848F958FA68FB78FE05CFF4F8083918388
:10260000A283B383F80184A995A9A6A9B7A918162E
:1026100019061A061B061CF4C8010E94F30440E0C8
:1026200050E066E973E48091E3039091E4030E9433
:10263000990D01E010E08AE0882E912CA12CB12C9C
:102640008091E3039091E403FC014381548165810F
:102650007681452B462B472B11F00E9425050E94C1
:102660006E050E946E05882379F0E0902802F090B4
:102670002902F2E0EF16F10409F489C04CF581E07B
:10268000E816F10409F459C08091E9039091EA0336
:102690000E947009882309F4A1C0E091E903F09138
:1026A000EA0314A2C2A0D3A0E0A1E93008F096C0CA
:1026B000F0E08827E15AFC4E8F4F0C94A914D513F3
:1026C000DA13DD13E013E313F4133C14E613F113F0
:1026D00093E0E916F10409F461C0E4E0EE16F104B8
:1026E00099F60E94FC0C0E943D0D6EE172E0809113
:1026F000EE039091EF030E941C0B6091F203709126
:10270000F30390E080E00E946B038091EE039091D0
:10271000EF030E94AD0CF092EC03E092EB030E94F9
:10272000B10A8091280290912902049709F0ACCF58
:102730001093290200932802A7CF0E94FC0C0E944C
:102740003D0D60E072E08091EE039091EF030E94F6
:102750001C0B6091F2037091F30390E080E00E9403
:102760006B038091EE039091EF030E94AD0CF09209
:10277000EC03E092EB030E94B10A80912802909151
:102780002902019690932902809328027DCF0E940E
:10279000FC0C0E943D0D6AE072E0D5CF0E94FC0C5B
:1027A0000E943D0D64E172E0CECF89E993E00E9482
:1027B0008B0D14C08CE893E0FACF8DE793E0F7CF50
:1027C0008FE693E0F4CF82E693E0F1CF83E892E0E6
:1027D0000E947E0D80E892E00E947E0D0E94C60459
:1027E0002FCF81E992E0F4CF8AE593E00E948B0439
:1027F0000D2C000CEE08FF08F7FE28C06DE284E403
:1028000093E00E943E0422273327A9012C193D0999
:102810004E095F0919A2CE0181967C01CA01B90156
:10282000A50194010E946814605DF70162937F0125
:10283000211531054105510589F7E114F10419F01D
:10284000C7010E947E0D8AE493E0B1CFA7019601F3
:1028500019A2CE0181967C01CA01B901A50194019A
:102860000E946814605DF70162937F0121153105B4
:102870004105510589F7E1CF8BE393E00E948B047A
:10288000F6013197E730F10508F0A8CF8827E45B1F
:10289000FB4E8F4F0C94A9145314561459145C1406
:1028A0005F14621465148CE293E081CF83E293E0BD
:1028B0007ECF83E193E07BCF8FEF92E078CF87EEFE
:1028C00092E075CF86ED92E072CF89EC92E06FCF07
:1028D000A1E21A2EAA1BBB1BFD010DC0AA1FBB1F24
:1028E000EE1FFF1FA217B307E407F50720F0A21B96
:1028F000B30BE40BF50B661F771F881F991F1A9403
:1029000069F760957095809590959B01AC01BD012C
:10291000CF010895052E97FB1EF400940E94A11488
:1029200057FD07D00E94681407FC03D04EF40C94A6
:10293000A11450954095309521953F4F4F4F5F4FD3
:10294000089590958095709561957F4F8F4F9F4F1B
:102950000895EE0FFF1F881F8BBF0790F691E02DA3
:1029600019945058BB27AA270E94C9140C944316E7
:102970000E94351638F00E943C1620F039F49F3F33
:1029800019F426F40C9432160EF4E095E7FB0C943F
:102990002C16E92F0E94541658F3BA1762077307D2
:1029A0008407950720F079F4A6F50C9476160EF4BA
:1029B000E0950B2EBA2FA02D0B01B90190010C014F
:1029C000CA01A0011124FF27591B99F0593F50F467
:1029D000503E68F11A16F040A22F232F342F4427BF
:1029E000585FF3CF469537952795A795F0405395B7
:1029F000C9F77EF41F16BA0B620B730B840BBAF087
:102A00009150A1F0FF0FBB1F661F771F881FC2F7F1
:102A10000EC0BA0F621F731F841F48F48795779505
:102A20006795B795F7959E3F08F0B0CF9395880FBF
:102A300008F09927EE0F9795879508950E9408163C
:102A400008F481E008950E9437150C9443160E9403
:102A50003C1658F00E94351640F029F45F3F29F0EB
:102A60000C942C1651110C9477160C9432160E946B
:102A7000541668F39923B1F3552391F3951B550B25
:102A8000BB27AA2762177307840738F09F5F5F4F41
:102A9000220F331F441FAA1FA9F335D00E2E3AF080
:102AA000E0E832D091505040E695001CCAF72BD098
:102AB000FE2F29D0660F771F881FBB1F26173707E9
:102AC0004807AB07B0E809F0BB0B802DBF01FF271B
:102AD00093585F4F3AF09E3F510578F00C942C16B6
:102AE0000C9477165F3FE4F3983ED4F38695779580
:102AF0006795B795F7959F5FC9F7880F911D9695D4
:102B0000879597F90895E1E0660F771F881FBB1F2F
:102B1000621773078407BA0720F0621B730B840BDC
:102B2000BA0BEE1F88F7E09508950E949C156894F3
:102B3000B1110C94771608950E945C1688F09F5787
:102B400098F0B92F9927B751B0F0E1F0660F771FD1
:102B5000881F991F1AF0BA95C9F714C0B13091F0C7
:102B60000E947616B1E008950C947616672F782FA0
:102B70008827B85F39F0B93FCCF38695779567958C
:102B8000B395D9F73EF490958095709561957F4FF8
:102B90008F4F9F4F0895E89409C097FB3EF490959E
:102BA0008095709561957F4F8F4F9F4F9923A9F026
:102BB000F92F96E9BB279395F695879577956795B5
:102BC000B795F111F8CFFAF4BB0F11F460FF1BC0F9
:102BD0006F5F7F4F8F4F9F4F16C0882311F096E98C
:102BE00011C0772321F09EE8872F762F05C066233A
:102BF00071F096E8862F70E060E02AF09A95660FF3
:102C0000771F881FDAF7880F9695879597F90895AB
:102C1000990F0008550FAA0BE0E8FEEF16161706ED
:102C2000E807F907C0F012161306E407F50798F055
:102C3000621B730B840B950B39F40A2661F0232B6E
:102C4000242B252B21F408950A2609F4A140A695EA
:102C50008FEF811D811D089597F99F6780E870E0CF
:102C600060E008959FEF80EC089500240A94161602
:102C7000170618060906089500240A94121613066A
:102C8000140605060895092E0394000C11F48823F8
:102C900052F0BB0F40F4BF2B11F460FF04C06F5F14
:102CA0007F4F8F4F9F4F089557FD9058440F551FEA
:102CB00059F05F3F71F04795880F97FB991F61F0BE
:102CC0009F3F79F087950895121613061406551F35
:102CD000F2CF4695F1DF08C0161617061806991FA1
:102CE000F1CF86957105610508940895E894BB2796
:102CF00066277727CB0197F908950E94081608F4F4
:102D00008FEF08950E9495160C9443160E94351675
:102D100038F00E943C1620F0952311F00C942C16EC
:102D20000C94321611240C9477160E94541670F3EA
:102D3000959FC1F3950F50E0551F629FF001729F60
:102D4000BB27F00DB11D639FAA27F00DB11DAA1F6F
:102D5000649F6627B00DA11D661F829F2227B00DBC
:102D6000A11D621F739FB00DA11D621F839FA00D47
:102D7000611D221F749F3327A00D611D231F849F97
:102D8000600D211D822F762F6A2F11249F575040EE
:102D90009AF0F1F088234AF0EE0FFF1FBB1F661F69
:102DA000771F881F91505040A9F79E3F510580F032
:102DB0000C942C160C9477165F3FE4F3983ED4F3F2
:102DC000869577956795B795F795E7959F5FC1F7D6
:102DD000FE2B880F911D9695879597F9089519F404
:102DE00016F40C9432160C9435170E945C16B8F346
:102DF0009923C9F3B6F39F57550B87FF0E944317DA
:102E00000024A0E640EA900180585695979528F452
:102E1000805C660F771F881F20F02617370748074A
:102E200030F4621B730B840B202931294A2BA695A1
:102E300017940794202531254A2758F7660F771FE6
:102E4000881F20F026173707480730F4620B730BF2
:102E5000840B200D311D411DA09581F7B901842FF0
:102E60009158880F9695879508959F3F31F091501E
:102E700020F4879577956795B795880F911D96955E
:102E8000879597F9089591505040660F771F881FD6
:102E9000D2F708950F931F93CF93DF93823091055C
:102EA00010F482E090E0E091CE04F091CF0430E0A5
:102EB00020E0B0E0A0E0309799F42115310509F445
:102EC0004AC0281B390B24303105D8F58A819B81F3
:102ED0006115710589F1FB0193838283FE0111C0A5
:102EE000408151810281138148175907E0F048174A
:102EF000590799F4109761F012960C931297139654
:102F00001C933296CF01DF91CF911F910F910895BD
:102F10000093CE041093CF04F4CF2115310551F066
:102F20004217530738F0A901DB019A01BD01DF0107
:102F3000F801C1CFEF01F9CF9093CF048093CE0475
:102F4000CDCFFE01E20FF31F8193919322503109FF
:102F500039832883D7CF2091CC043091CD04232B03
:102F600041F420914002309141023093CD042093EE
:102F7000CC0420913E0230913F022115310541F4ED
:102F80002DB73EB74091420250914302241B350BAE
:102F9000E091CC04F091CD04E217F307A0F42E1BCE
:102FA0003F0B2817390778F0AC014E5F5F4F2417AD
:102FB000350748F04E0F5F1F5093CD044093CC046B
:102FC000819391939FCFF0E0E0E09CCFCF93DF938C
:102FD0000097E9F0FC01329713821282A091CE048F
:102FE000B091CF04ED0130E020E01097A1F42081F2
:102FF0003181820F931F2091CC043091CD0428178A
:10300000390709F061C0F093CD04E093CC04DF915F
:10301000CF910895EA01CE17DF07E8F54A815B8179
:103020009E0141155105B1F7E901FB83EA834991FE
:103030005991C40FD51FEC17FD0761F48081918170
:103040000296840F951FE901998388838281938179
:103050009B838A83F0E0E0E012968D919C91139718
:103060000097B9F52D913C911197CD010296820FF1
:10307000931F2091CC043091CD042817390739F6DD
:10308000309751F51092CF041092CE04B093CD0436
:10309000A093CC04BCCFD383C28340815181840FE1
:1030A000951FC817D90761F44E5F5F4F88819981DA
:1030B000480F591F518340838A819B819383828368
:1030C0002115310509F0B0CFF093CF04E093CE0481
:1030D0009ECFFD01DC01C0CF13821282D7CFF894BE
:0230E000FFCF20
:1030E2000808000000447E40000008080000446216
:1030F200524C00000808000024424A34000008082C
:1031020000001814127E00000100080800040810D4
:103112001008040008080020100808102000000011
:10312200D00480007EFF06000100000000EF0000D6
:1031320000003E049E03CB03A604FC03DA03EE0365
:10314200000000002906F5056F09200E16088E07FB
:10315200CC07780746072507F106D0067A06470608
:103162000D0A0055534220496E73657274656421DD
:0E317200005553422052656D6F766564210052
:00000001FF
